:020000040800F2
:1000000000A00020351800085D1700085F170008E1
:10001000611700086317000865170008000000005A
:10002000000000000000000000000000671700084A
:1000300069170008000000006B1700086D17000822
:10004000851800088518000885180008851800081C
:100050008518000885180008791700088518000819
:1000600085180008851800088518000885180008FC
:1000700085180008851800088518000885180008EC
:1000800085180008851800088518000885180008DC
:1000900085180008851800088518000885180008CC
:1000A00085180008851800088518000885180008BC
:1000B00085180008851700088518000885180008AD
:1000C000851800088518000885180008851800089C
:1000D000851800088518000885180008851800088C
:1000E000851800088518000885180008851800087C
:1000F000851800088518000885180008851800086C
:10010000000000000000000000000000851800084A
:10011000851800088518000885180008851800084B
:10012000851800088518000885180008851800083B
:100130008518000885180008000000000000000075
:1001400085180008851800088518000800000000C0
:10015000000000000000000000000000000000009F
:100160000000000000000000851800088518000845
:1001700085180008000000000000000000000000DA
:080180000000000085180008D2
:1001880010B5054C237833B9044B13B10448AFF3C9
:1001980000800123237010BD100000200000000023
:1001A800D018000808B5034B1BB103490348AFF347
:1001B800008008BD0000000014000020D0180008CE
:1001C80010B504460E4B18784FF47A73B3FBF0F36E
:1001D8000C4A1068B0FBF3F000F08CF868B90F2CEB
:1001E80001D901200AE0002221464FF0FF3000F03B
:1001F80041F8034B5C60002000E0012010BD00BF07
:10020800000000200C00002008B5074A136843F0DE
:1002180010031360032000F01BF80020FFF7D0FF45
:1002280001F024FA002008BD00200240034A1168AA
:10023800034B1B780B441360704700BF2C00002051
:1002480000000020014B1868704700BF2C000020F8
:10025800074AD36823F4E0631B041B0C000200F474
:10026800E060184340F0BF6040F40030D060704751
:1002780000ED00E030B4174BDB68C3F30223C3F191
:100288000704042C28BF04241D1D062D18D9033B80
:100298004FF0FF3505FA04F421EA0401994005FA04
:1002A80003F322EA0303194300280BDB0901C9B24F
:1002B80000F1604000F5614080F8001330BC7047E1
:1002C8000023E5E700F00F000901C9B2024B1954F9
:1002D800F4E700BF00ED00E014ED00E000F01F02BD
:1002E800400901239340024A42F82030704700BF7A
:1002F80000E100E00138B0F1807F0AD2064B586077
:10030800064AF02182F823100020986007221A601C
:1003180070470120704700BF10E000E000ED00E0EA
:10032800042805D0054A136823F0040313607047B6
:10033800024A136843F004031360704710E000E0BA
:10034800704708B5FFF7FCFF08BD0000F0B482B0A5
:10035800002336E0042400E00024B4403C43023586
:100368005B4E46F825405B4C2568D44304EA0506F5
:100378004F6817F4803F01D042EA0506554D2E60BC
:100388006D6804EA05064F6817F4003F01D042EA99
:100398000506504D6E60AD6804EA05064F6817F40F
:1003A800801F01D042EA05064A4DAE60ED682C4038
:1003B8004E6816F4001F01D042EA0504454AD4608D
:1003C80001330A6832FA03F47ED001249C402240AB
:1003D800F6D04D68022D01D0122D10D1DE08083656
:1003E80050F826C003F00705AF000F25BD402CEAE2
:1003F800050C0D69BD4045EA0C0540F82650066815
:100408005F000325BD40ED4305EA060C4E6806F083
:100418000306BE4046EA0C0606604E6806F1FF3C3D
:10042800BCF1010F03D9112E01D0122E10D186680C
:1004380005EA060CCE68BE4046EA0C0686604668A9
:1004480026EA04044E68C6F300169E40264346601A
:10045800C46825408C68BC402C43C4604C6814F0C8
:10046800805FADD01C4CA56945F00105A561A46964
:1004780004F001040194019C9D08AE1C144C54F82E
:10048800267003F00304A6000F24B44027EA0407EB
:10049800B0F1904F3FF460AF104CA0420ED004F57D
:1004A8008064A0420CD004F58064A0420AD004F510
:1004B8008064A0423FF44EAF05244EE701244CE788
:1004C80002244AE7032448E702B0F0BC704700BFA3
:1004D80000000140000401400010024000040048F0
:1004E8000AB98162704781617047000008B5054B01
:1004F8005B69034200D108BD024B586101F056F90F
:10050800F9E700BF00040140002800F0F58270B54B
:1005180082B00446036813F0010F3BD0B54B5B680B
:1005280003F00C03042B1ED0B24B5B6803F00C03E2
:10053800082B13D06368B3F5803F68D0002B40F0D8
:10054800928003F1804303F504331A6822F4803261
:100558001A601A6822F480221A605DE0A54B5B6875
:1005680013F4803FE6D04FF4003393FAA3F3A14B82
:1005780019684FF4003393FAA3F3B3FA83F303F043
:100588001F03012202FA03F30B4203D06368002B16
:1005980000F0B482236813F0020F00F0C680954B78
:1005A8005B6813F00C0F00F09C80924B5B6803F0C3
:1005B8000C03082B00F08F802369002B00F0F380D8
:1005C800012292FAA2F3B3FA83F303F1845303F5F9
:1005D80084139B001A60FFF735FE0546022393FA41
:1005E800A3F3844B1968022393FAA3F3B3FA83F3B2
:1005F80003F01F03012202FA03F30B4240F0C48008
:10060800FFF720FE401B0228E8D9032083E2794A3D
:10061800136843F480331360764AD36A23F00F03D8
:10062800A1680B43D3626368002B36D0FFF70AFE3C
:1006380005464FF4003393FAA3F36E4B19684FF451
:10064800003393FAA3F3B3FA83F303F01F030122F1
:1006580002FA03F30B429DD1FFF7F4FD401B642817
:10066800E7D9032057E2B3F5A02F09D0614B1A68E8
:1006780022F480321A601A6822F480221A60CBE7CA
:1006880003F18043A3F53C331A6842F480221A60D0
:100698001A6842F480321A60BEE7FFF7D3FD0546B8
:1006A8004FF4003393FAA3F3524B19684FF4003315
:1006B80093FAA3F3B3FA83F303F01F03012202FAB8
:1006C80003F30B423FF466AFFFF7BCFD401B642801
:1006D800E6D903201FE2474B5B6813F4803F7FF4A1
:1006E8006BAF022393FAA3F3424B1968022393FAE0
:1006F800A3F3B3FA83F303F01F03012202FA03F30F
:100708000B4204D02369934201D0012003E2394807
:10071800036823F0F8036169F82292FAA2F2B2FAA8
:1007280082F201FA02F213430360236813F0080F00
:1007380000F08C80A369002B60D0012191FAA1F20E
:10074800B2FA82F22C4B13449B001960FFF77AFD32
:100758000546022393FAA3F293FAA3F293FAA3F2BB
:10076800244A516A93FAA3F3B3FA83F303F01F03FD
:10077800012202FA03F30B4268D1FFF763FD401B25
:100788000228E6D90320C6E11A48036823F0F803D3
:100798006169F82292FAA2F2B2FA82F201FA02F23E
:1007A80013430360C1E7012393FAA3F3B3FA83F376
:1007B80003F1845303F584139B0000221A60FFF7AA
:1007C80041FD0546022393FAA3F30A4B1968022355
:1007D80093FAA3F3B3FA83F303F01F03012202FA97
:1007E80003F30B42A1D0FFF72DFD401B0228E9D9E6
:1007F800032090E10010024020819010012292FA1B
:10080800A2F2B2FA82F2C04B13449B0000221A6093
:10081800FFF718FD0546022393FAA3F293FAA3F211
:1008280093FAA3F2B94A516A93FAA3F3B3FA83F39A
:1008380003F01F03012202FA03F30B4206D0FFF76D
:1008480001FD401B0228E6D9032064E1236813F068
:10085800040F00F0B380AD4BDB6913F0805F20D14B
:10086800AA4BDA6942F08052DA61DB6903F08053FF
:100878000193019B0125A64B1B6813F4807F12D0BE
:10088800E368012B23D073BB03F1804303F50433E2
:100898001A6A22F001021A621A6A22F004021A6223
:1008A8001AE00025E7E79A4A136843F48073136057
:1008B800FFF7C8FC0646964B1B6813F4807FDFD110
:1008C800FFF7C0FC801B6428F5D9032023E18F4A79
:1008D800136A43F001031362E368002B41D0FFF76A
:1008E800B1FC06462BE0052B09D0884B1A6A22F08A
:1008F80001021A621A6A22F004021A62ECE7834BB8
:100908001A6A42F004021A621A6A42F001021A6272
:10091800E2E77E4B196A022393FAA3F3B3FA83F34F
:1009280003F01F03012202FA03F3194245D1FFF72E
:1009380089FC801B41F28833984200F2E18002234F
:1009480093FAA3F293FAA3F3B3FA83F35B0943F0A0
:100958000203022BDDD0022393FAA3F36B4B596AEF
:10096800D9E7FFF76FFC064615E0684B196A0223C2
:1009780093FAA3F3B3FA83F303F01F03012202FAF5
:1009880003F3194219D0FFF75DFC801B41F288334D
:10099800984200F2B780022393FAA3F293FAA3F3E2
:1009A800B3FA83F35B0943F00203022BDDD0022381
:1009B80093FAA3F3554B596AD9E7B5BBE369002B02
:1009C80000F0A880514A526802F00C02082A00F090
:1009D800A480022B2FD04FF0807393FAA3F3B3FABD
:1009E80083F303F1845303F584139B0000221A60F8
:1009F800FFF728FC04464FF0007393FAA3F3434B28
:100A080019684FF0007393FAA3F3B3FA83F303F072
:100A18001F03012202FA03F319426BD0FFF712FCFD
:100A2800001B0228E7D9032075E0384AD36923F070
:100A38008053D361C2E74FF0807393FAA3F3B3FAFC
:100A480083F303F1845303F584139B0000221A6097
:100A5800FFF7F8FB05464FF0007393FAA3F32B4B0F
:100A680019684FF0007393FAA3F3B3FA83F303F012
:100A78001F03012202FA03F3194206D0FFF7E2FB33
:100A8800401B0228E7D9032045E020494B6823F49E
:100A98007413626A206A024313434B604FF08073F9
:100AA80093FAA3F3B3FA83F303F1845303F584139E
:100AB8009B0001221A60FFF7C5FB04464FF0007344
:100AC80093FAA3F3114B19684FF0007393FAA3F349
:100AD800B3FA83F303F01F03012202FA03F3194266
:100AE80006D1FFF7AFFB001B0228E7D9032012E06D
:100AF800002010E000200EE00120704701200AE0ED
:100B0800032008E0032006E0208190100010024036
:100B180000700040002002B070BD0120FBE700BF5C
:100B280010B4174B5C6804F00C03082B26D104F4AE
:100B380070124FF4701393FAA3F3B3FA83F322FA03
:100B480003F31049C85C0E4BDB6A03F00F030F2256
:100B580092FAA2F2B2FA82F2D3400B441A7C14F44D
:100B6800803F05D1084B03FB00F05DF8044B70474C
:100B7800064BB3FBF2F300FB03F0F6E70348F4E798
:100B880000100240E818000800093D0000127A0031
:100B9800002800F0C08070B50446614B1B6803F064
:100BA80007038B420CD25E4A136823F007030B43FA
:100BB8001360136803F007038B4201D0012070BD56
:100BC800236813F0020F06D0564A536823F0F00347
:100BD800A068034353600D46236813F0010F5AD0F1
:100BE8006368012B2DD0022B40D0022292FAA2F288
:100BF8004C4A1068022292FAA2F2B2FA82F202F089
:100C08001F02012101FA02F2104200F086804549D4
:100C18004A6822F0030213434B60FFF713FB0646B2
:100C2800404B5B6803F00C036268B3EB820F32D071
:100C3800FFF708FB801B41F288339842F0D9032064
:100C4800BDE74FF4003292FAA2F2364A10684FF428
:100C5800003292FAA2F2B2FA82F202F01F020121E5
:100C680001FA02F20242D2D10120A8E74FF0007245
:100C780092FAA2F22B4A10684FF0007292FAA2F28E
:100C8800B2FA82F202F01F02012101FA02F21042C6
:100C9800BDD1012093E7224B1B6803F00703AB4249
:100CA8000CD91F4A136823F007032B4313601368FA
:100CB80003F00703AB4201D0012080E7236813F05B
:100CC800040F06D0174A536823F4E063E1680B4326
:100CD8005360236813F0080F07D0124A536823F4AF
:100CE8006053216943EAC1035360FFF719FF0D4BB5
:100CF8005B6803F0F003F02292FAA2F2B2FA82F2F1
:100D0800D340094AD35CD840084B18600020FFF74D
:100D180057FA002053E70120704701204FE700BF32
:100D28000020024000100240081900080C000020B2
:100D3800014B1868704700BF0C000020F0B583B065
:100D48000446036813F4803F48D0934BDB6913F0E3
:100D5800805F40F0D580904BDA6942F08052DA61CA
:100D6800DB6903F080530193019B01258B4B1B68C2
:100D780013F4807F00F0C680874B1B6A13F440731E
:100D880022D0626802F440729A421DD08248016AF9
:100D980021F440764FF4803393FAA3F2B2FA82F248
:100DA8007F4F3A4492004FF0010CC2F800C093FA0A
:100DB800A3F3B3FA83F33B449B0000221A60066254
:100DC80011F0010F40F0B380734A136A23F44073A3
:100DD80061680B431362002D40F0D580236813F03F
:100DE800010F06D06C4A136B23F00303A1680B4371
:100DF8001363236813F0020F06D0674A136B23F4BA
:100E08004033E1680B431363236813F0040F06D0E3
:100E1800614A136B23F4402321690B43136323684E
:100E280013F0200F06D05C4A136B23F01003E1691E
:100E38000B431363236813F4003F06D0564A5368E4
:100E480023F48003A16B0B435360236813F0400F16
:100E580006D0514A136B23F02003216A0B43136316
:100E6800236813F0080F06D04B4A136B23F4401382
:100E780061690B431363236813F0100F06D0464AC9
:100E8800136B23F44003A1690B431363236813F422
:100E9800007F06D0404A536823F40003E16A0B43FD
:100EA8005360236813F0800F06D03B4AD36A23F4BB
:100EB800F873616A0B43D362236813F4807F06D00A
:100EC800354AD36A23F47853A16A0B43D362236863
:100ED80013F4805F06D0304A136B23F48073216BC0
:100EE8000B431363236813F4005F53D02A4A136B30
:100EF80023F40073616B0B431363002003B0F0BD50
:100F0800002533E7254A136843F480731360FFF71D
:100F180099F90646214B1B6813F4807F7FF42CAFA8
:100F2800FFF790F9801B6428F4D90320E6E7FFF760
:100F380089F9064615E0184B196A022393FAA3F3B8
:100F4800B3FA83F303F01F03012202FA03F30B42FF
:100F58007FF43AAFFFF776F9801B41F28833984265
:100F680016D8022393FAA3F293FAA3F3B3FA83F3FE
:100F78005B0943F00203022BDDD0022393FAA3F3AB
:100F8800054B596AD9E7D36923F08053D36125E724
:100F98000320B3E70020B1E70010024000700040D2
:100FA8000081901010B4036A046A24F001040462FA
:100FB800846924F0F00444EA021223F00A030B4384
:100FC800826103625DF8044B704710B4036A23F032
:100FD800100303628469036A24F4704444EA023209
:100FE80023F0A00343EA0113826103625DF8044B16
:100FF8007047836823F0700341F00701194381604B
:1010080070470268D36843F00103D360026813682D
:1010180043F0010313600020704770477047704722
:101028007047704710B5044603681A6912F0020F3A
:1010380011D0DA6812F0020F0DD06FF002021A61B7
:101048000123037703689B6913F0030F79D0FFF737
:10105800E6FF0023237723681A6912F0040F12D0E1
:10106800DA6812F0040F0ED06FF004021A6102233E
:10107800237723689B6913F4407F68D02046FFF7E5
:10108800CEFF0023237723681A6912F0080F12D0C5
:10109800DA6812F0080F0ED06FF008021A61042304
:1010A80023772368DB6913F0030F57D02046FFF737
:1010B800B6FF0023237723681A6912F0100F12D0A5
:1010C800DA6812F0100F0ED06FF010021A610823C0
:1010D80023772368DB6913F4407F46D02046FFF767
:1010E8009EFF0023237723681A6912F0010F03D0AB
:1010F800DA6812F0010F3FD123681A6912F0800FE5
:1011080003D0DA6812F0800F3DD123681A6912F40F
:10111800807F03D0DA6812F0800F3BD123681A6908
:1011280012F0400F03D0DA6812F0400F39D123686B
:101138001A6912F0200F03D0DA6812F0200F37D1A5
:1011480010BDFFF76BFF2046FFF76AFF81E72046D7
:10115800FFF764FF2046FFF763FF92E72046FFF79B
:101168005DFF2046FFF75CFFA3E72046FFF756FF29
:101178002046FFF755FFB4E76FF001021A612046D9
:10118800FFF74BFFB8E76FF080021A61204600F0C6
:1011980052F9BAE76FF480721A61204600F04CF9F0
:1011A800BCE76FF040021A612046FFF73AFFBEE73E
:1011B8006FF020021A61204600F03CF9C0E70000F9
:1011C80003682C4A90420ED0B0F1804F0BD0A2F5A4
:1011D8009432904207D002F58062904203D002F523
:1011E8009632904203D123F070034A681343214A90
:1011F80090421AD0B0F1804F17D0A2F594329042A5
:1012080013D002F5806290420FD002F596329042D8
:101218000BD002F54062904207D002F580629042FE
:1012280003D002F58062904203D123F44073CA6868
:10123800134323F080034A69134303608B68C36236
:101248000B6883620B4B98420FD003F500639842FA
:101258000BD003F54063984207D003F580639842AA
:1012680003D003F58063984201D10B69036301231E
:1012780043617047002C0140A8B110B5044690F8AE
:101288003D305BB1022384F83D30211D2068FFF713
:1012980097FF012384F83D30002010BD80F83C30D2
:1012A80000F02CFAEEE70120704710B4846824F4AB
:1012B8007F4442EA03230B43234383605DF8044BD6
:1012C8007047000090F83C30012B00F0828010B588
:1012D8000446012380F83C30022380F83D30026840
:1012E80090683D4B034093600B68402B5DD010D94C
:1012F800702B40D01FD8502B4DD0602B34D1CA68EA
:1013080049682068FFF761FE60212068FFF771FED9
:101318002AE0102B53D008D9202B55D0302B23D1BD
:1013280030212068FFF765FE1EE0EBB90021206838
:10133800FFF75FFE18E0B3F5805F0ED0B3F5005FEE
:1013480012D1CB684A6889682068FFF7AEFF226827
:10135800936843F48043936006E02268936823F41B
:10136800803323F007039360012384F83D30002085
:1013780084F83C0010BDCB684A6889682068FFF78C
:1013880094FF2268936823F4803323F0770343F0B3
:1013980077039360E8E7CA6849682068FFF702FEA8
:1013A80050212068FFF725FEDEE7CA6849682068F3
:1013B800FFF7F8FD40212068FFF71BFED4E7102156
:1013C8002068FFF716FECFE720212068FFF711FEFF
:1013D800CAE70220704700BF8800FEFF90F83C3043
:1013E800012B22D030B4012380F83C3002685368C6
:1013F80095680F4CA24203D004F50064A24203D1C1
:1014080023F470034C68234323F070030C682343D0
:1014180025F080048968214353600368996000239C
:1014280080F83C30184630BC70470220704700BF37
:10143800002C0140704770477047000070B58AB0B3
:101448002E4B5A6942F400125A615A6902F400128A
:101458000092009A5A6942F400225A615A6902F4C9
:1014680000220192019A5A6942F480025A615A692B
:1014780002F480020292029A5A6942F400325A61D6
:101488005A6902F400320392039A5A6942F480229C
:101498005A615B6903F480230493049B184D00226E
:1014A8004FF608712846FFF71BF836230593154BAE
:1014B80006930024079405A92846FEF747FF4FF630
:1014C80008730593012606960794089405A92846EB
:1014D800FEF73CFF05960C4B0693079405A94FF0C1
:1014E8009040FEF733FF224604210620FEF7C2FE95
:1014F8000620FEF7F3FE0AB070BD00BF00100240E0
:1015080000100048000012100000111011F00F0127
:1015180007D000FA01F3494201F00F01C84018430F
:1015280080B27047FEE7000000B589B01748184B35
:10153800036048F69F434360002383604FF4FA72C8
:10154800C26003618361FFF797FE98B908A94FF459
:10155800805341F8103D0D48FFF7B4FE70B90023E1
:101568000193039301A90948FFF738FF50B909B05F
:101578005DF804FB88210748FFF7D4FF8E21054852
:10158800FFF7D0FF95210348FFF7CCFF300000207C
:10159800000400402019000800B59FB003231493ED
:1015A8004FF4A023159300231693012318931023B7
:1015B800199302231B934FF480331C934FF4801329
:1015C8001D9314A8FEF7A0FF68BB0F230F930223F7
:1015D8001093002311934FF4806212921393012108
:1015E8000FA8FFF7D5FA10BB154B009300230793FC
:1015F8004FF480030E936846FFF7A0FBD8B9FFF7B6
:1016080097FB104BA3FB00308009FEF773FE042004
:10161800FEF786FE002211464FF0FF30FEF72AFE45
:101628001FB05DF804FB55210748FFF77BFF6321D6
:101638000548FFF777FF6B210348FFF773FF00BFEB
:1016480020000200D34D62102019000808B5FEF7EB
:10165800DBFDFFF7A1FFFFF7F1FEFFF765FF02488B
:10166800FFF7CFFCFEE700BF3000002000B583B0D5
:10167800214B9A6942F001029A619A6902F00102CB
:101688000092009ADA6942F08052DA61DB6903F06D
:1016980080530193019B0720FEF7DAFD00221146D3
:1016A8006FF00B00FEF7E6FD002211466FF00A000E
:1016B800FEF7E0FD002211466FF00900FEF7DAFDA3
:1016C800002211466FF00400FEF7D4FD00221146F7
:1016D8006FF00300FEF7CEFD002211466FF0010007
:1016E800FEF7C8FD002211464FF0FF30FEF7C2FD9D
:1016F80003B05DF804FB00BF001002400268134B02
:101708009A4200D0704710B586B003F50333DA6902
:1017180042F00202DA61DB6903F002030093009BE6
:101728001023019302230293002403940494059345
:1017380001A90748FEF70AFE224621461D20FEF7AA
:1017480099FD1D20FEF7CAFD06B010BD000400403B
:10175800000400487047FEE7FEE7FEE7FEE7704733
:101768007047704708B5FEF761FDFEF7EAFD08BD52
:1017780008B50120FEF7BAFE08BD000010B50848FC
:10178800FFF750FC074A5369074C208800F47F4153
:101798004B4053610121FFF7B9FE208010BD00BF07
:1017A800300000200010004808000020012800D068
:1017B8007047034A536983F480635361F8E700BFB5
:1017C800001000481549D1F8883043F47003C1F877
:1017D8008830134B1A6842F001021A605868114A9F
:1017E80002405A601A6822F0847222F480321A6029
:1017F8001A6822F480221A605A6822F4FE025A609B
:10180800DA6A22F00F02DA62186B074A02401A639A
:1018180000229A604FF000638B60704700ED00E093
:10182800001002400CC07FF8CCFC00FFDFF834D079
:10183800002103E00C4B5B58435004310B480C4B20
:1018480042189A42F6D30B4A02E0002342F8043BBE
:10185800094B9A42F9D3FFF7B5FF00F011F8FFF7EB
:10186800F5FEFEE700A0002038190008000000205F
:10187800100000201000002070000020FEE700008B
:1018880070B50D4E0D4CA41BA4100025A54209D11E
:101898000B4E0C4C00F018F8A41BA4100025A54210
:1018A80005D170BD56F8253098470135EEE756F852
:1018B800253098470135F2E730190008301900083B
:1018C8003019000834190008F8B500BFF8BC08BC86
:1018D8009E467047F8B500BFF8BC08BC9E467047E6
:1018E80002030405060708090A0B0C0D0E0F101059
:1018F8000102030405060708090A0B0C0D0E0F1058
:1019080000000000000000000102030406070809A7
:1019180000000000010203042E2E2F5372632F6D66
:0819280061696E2E63000000EE
:04193000AD010008FD
:04193400890100081D
:1019380001000000100000000101000000127A0000
:0400000508001835A2
:00000001FF
